:100000000C942A000C942C020C942C020C942C02BC
:100010000C942C020C942C020C942C020C942C02A8
:100020000C942C020C942C020C942C020C942C0298
:100030000C942C020C942C020C942C020C942C0288
:100040000C942C020C942C020C942C020C942C0278
:100050000C942C0211241FBECFE5D8E0DEBFCDBF2B
:0C0060000E94DF010C943400F894FFCFE4
:10006C000E94030258F00E94FC0140F029F45F3F0B
:10007C0029F00C94170251110C940B020C942902C8
:10008C000E94760168F39923B1F3552391F3951BE4
:10009C00550BBB27AA2762177307840738F09F5F9D
:1000AC005F4F220F331F441FAA1FA9F335D00E2E0A
:1000BC003AF0E0E832D091505040E695001CCAF777
:1000CC002BD0FE2F29D0660F771F881FBB1F26173A
:1000DC0037074807AB07B0E809F0BB0B802DBF0111
:1000EC00FF2793585F4F3AF09E3F510578F00C94E0
:1000FC0017020C940B025F3FE4F3983ED4F3869501
:10010C0077956795B795F7959F5FC9F7880F911D00
:10011C009695879597F90895E1E0660F771F881FEC
:10012C00BB1F621773078407BA0720F0621B730B9F
:0C013C00840BBA0BEE1F88F7E0950895C5
:100148000E94FC0138F00E94030220F039F49F3F1E
:1001580019F426F40C9429020EF4E095E7FB0C94AC
:100168001702E92F0E94760158F3BA17620773073E
:100178008407950720F079F4A6F50C940A020EF48A
:10018800E0950B2EBA2FA02D0B01B90190010C019F
:10019800CA01A0011124FF27591B99F0593F50F4B7
:1001A800503E68F11A16F040A22F232F342F44270F
:1001B800585FF3CF469537952795A795F040539507
:1001C800C9F77EF41F16BA0B620B730B840BBAF0D7
:1001D8009150A1F0FF0FBB1F661F771F881FC2F742
:1001E8000EC0BA0F621F731F841F48F48795779556
:1001F8006795B795F7959E3F08F0B0CF9395880F10
:0C02080008F09927EE0F97958795089550
:10021400E89409C097FB3EF490958095709561959C
:100224007F4F8F4F9F4F9923A9F0F92F96E9BB2752
:100234009395F695879577956795B795F111F8CFCE
:10024400FAF4BB0F11F460FF1BC06F5F7F4F8F4F39
:100254009F4F16C0882311F096E911C0772321F02F
:100264009EE8872F762F05C0662371F096E8862FC7
:1002740070E060E02AF09A95660F771F881FDAF71E
:0A028400880F9695879597F9089565
:10028E000E947E0188F09F5798F0B92F9927B75199
:10029E00B0F0E1F0660F771F881F991F1AF0BA951C
:1002AE00C9F714C0B13091F00E940A02B1E008956E
:1002BE000C940A02672F782F8827B85F39F0B93F60
:1002CE00CCF3869577956795B395D9F73EF49095CF
:0E02DE008095709561957F4F8F4F9F4F0895CB
:1002EC0057FD9058440F551F59F05F3F71F04795DB
:1002FC00880F97FB991F61F09F3F79F087950895C0
:10030C00121613061406551FF2CF4695F1DF08C0DE
:10031C00161617061806991FF1CF869571056105FB
:04032C000894089594
:10033000892BB9F06C9A8DB1643071051CF0962F41
:100340009D7F01C0962F892B8DB98DB191E06430CE
:1003500071050CF490E0892B8DB987B3806B87BB56
:0A03600002C06C98BE9A6E9A0895D0
:10036A00BC01990F880B990B0E940C019B01AC01EF
:10037A0060E074E284E799E40E94250220E030E01C
:10038A0040E85FE30E94EE010E94F50169B970BD81
:02039A000895C4
:10039C00092E0394000C11F4882352F0BB0F40F487
:1003AC00BF2B11F460FF04C06F5F7F4F8F4F9F4FC7
:0203BC000895A2
:1003BE0080E895E20E94110263E070E081E090E037
:0E03CE000E9498010E9421020E941D02FBCF96
:0E03DC005058BB27AA270E94B5000C94CE01F2
:0E03EA000E9447016894B1110C940B02089513
:0E03F80000240A941616170618060906089522
:0E04060000240A941216130614060506089523
:0E041400E894BB2766277727CB0197F9089558
:0C0422002AB128612AB90E94B501089592
:0C042E0097F99F6780E870E060E0089597
:08043A008FB9779BFECF0895F6
:080442005F9BFECF8CB1089511
:08044A000E9446000C94CE0153
:060452009FEF80EC08950D
:040458000C94000000
:00000001FF
